{
  "contractName": "PunchTheClock",
  "abi": [
    {
      "constant": true,
      "inputs": [
        {
          "name": "",
          "type": "uint256"
        }
      ],
      "name": "departList",
      "outputs": [
        {
          "name": "eid",
          "type": "address"
        },
        {
          "name": "time",
          "type": "uint256"
        }
      ],
      "payable": false,
      "stateMutability": "view",
      "type": "function"
    },
    {
      "constant": true,
      "inputs": [],
      "name": "arrivalsCount",
      "outputs": [
        {
          "name": "",
          "type": "uint256"
        }
      ],
      "payable": false,
      "stateMutability": "view",
      "type": "function"
    },
    {
      "constant": true,
      "inputs": [
        {
          "name": "",
          "type": "uint256"
        }
      ],
      "name": "arrivalList",
      "outputs": [
        {
          "name": "eid",
          "type": "address"
        },
        {
          "name": "time",
          "type": "uint256"
        }
      ],
      "payable": false,
      "stateMutability": "view",
      "type": "function"
    },
    {
      "constant": true,
      "inputs": [],
      "name": "timeMax",
      "outputs": [
        {
          "name": "",
          "type": "uint256"
        }
      ],
      "payable": false,
      "stateMutability": "view",
      "type": "function"
    },
    {
      "constant": true,
      "inputs": [
        {
          "name": "",
          "type": "address"
        }
      ],
      "name": "entityList",
      "outputs": [
        {
          "name": "name",
          "type": "string"
        },
        {
          "name": "isActive",
          "type": "bool"
        },
        {
          "name": "isApproved",
          "type": "bool"
        },
        {
          "name": "isRegistered",
          "type": "bool"
        },
        {
          "name": "arrivals",
          "type": "uint256"
        },
        {
          "name": "departures",
          "type": "uint256"
        },
        {
          "name": "timeArrived",
          "type": "uint256"
        },
        {
          "name": "timeDeparted",
          "type": "uint256"
        }
      ],
      "payable": false,
      "stateMutability": "view",
      "type": "function"
    },
    {
      "constant": true,
      "inputs": [],
      "name": "departuresCount",
      "outputs": [
        {
          "name": "",
          "type": "uint256"
        }
      ],
      "payable": false,
      "stateMutability": "view",
      "type": "function"
    },
    {
      "constant": true,
      "inputs": [],
      "name": "timeMin",
      "outputs": [
        {
          "name": "",
          "type": "uint256"
        }
      ],
      "payable": false,
      "stateMutability": "view",
      "type": "function"
    },
    {
      "constant": true,
      "inputs": [
        {
          "name": "",
          "type": "uint256"
        }
      ],
      "name": "registeredList",
      "outputs": [
        {
          "name": "",
          "type": "address"
        }
      ],
      "payable": false,
      "stateMutability": "view",
      "type": "function"
    },
    {
      "constant": true,
      "inputs": [],
      "name": "admin",
      "outputs": [
        {
          "name": "",
          "type": "address"
        }
      ],
      "payable": false,
      "stateMutability": "view",
      "type": "function"
    },
    {
      "inputs": [
        {
          "name": "_name",
          "type": "string"
        },
        {
          "name": "_timeMin",
          "type": "uint256"
        },
        {
          "name": "_timeMax",
          "type": "uint256"
        }
      ],
      "payable": false,
      "stateMutability": "nonpayable",
      "type": "constructor"
    },
    {
      "anonymous": false,
      "inputs": [
        {
          "indexed": true,
          "name": "_from",
          "type": "address"
        },
        {
          "indexed": false,
          "name": "_name",
          "type": "string"
        }
      ],
      "name": "EventRegister",
      "type": "event"
    },
    {
      "anonymous": false,
      "inputs": [
        {
          "indexed": true,
          "name": "_from",
          "type": "address"
        },
        {
          "indexed": false,
          "name": "_name",
          "type": "string"
        }
      ],
      "name": "EventArrive",
      "type": "event"
    },
    {
      "anonymous": false,
      "inputs": [
        {
          "indexed": true,
          "name": "_from",
          "type": "address"
        },
        {
          "indexed": false,
          "name": "_name",
          "type": "string"
        }
      ],
      "name": "EventDepart",
      "type": "event"
    },
    {
      "constant": true,
      "inputs": [
        {
          "name": "_address",
          "type": "address"
        }
      ],
      "name": "isRegistered",
      "outputs": [
        {
          "name": "isIndeed",
          "type": "bool"
        }
      ],
      "payable": false,
      "stateMutability": "view",
      "type": "function"
    },
    {
      "constant": false,
      "inputs": [
        {
          "name": "_address",
          "type": "address"
        }
      ],
      "name": "adminApprove",
      "outputs": [],
      "payable": false,
      "stateMutability": "nonpayable",
      "type": "function"
    },
    {
      "constant": false,
      "inputs": [
        {
          "name": "_address",
          "type": "address"
        }
      ],
      "name": "adminRevoke",
      "outputs": [],
      "payable": false,
      "stateMutability": "nonpayable",
      "type": "function"
    },
    {
      "constant": false,
      "inputs": [
        {
          "name": "_address",
          "type": "address"
        }
      ],
      "name": "adminDeactivate",
      "outputs": [],
      "payable": false,
      "stateMutability": "nonpayable",
      "type": "function"
    },
    {
      "constant": false,
      "inputs": [
        {
          "name": "_address",
          "type": "address"
        },
        {
          "name": "_name",
          "type": "string"
        }
      ],
      "name": "adminNameEntity",
      "outputs": [],
      "payable": false,
      "stateMutability": "nonpayable",
      "type": "function"
    },
    {
      "constant": false,
      "inputs": [
        {
          "name": "_name",
          "type": "string"
        }
      ],
      "name": "name",
      "outputs": [],
      "payable": false,
      "stateMutability": "nonpayable",
      "type": "function"
    },
    {
      "constant": true,
      "inputs": [],
      "name": "name",
      "outputs": [
        {
          "name": "",
          "type": "string"
        }
      ],
      "payable": false,
      "stateMutability": "view",
      "type": "function"
    },
    {
      "constant": false,
      "inputs": [],
      "name": "arrive",
      "outputs": [],
      "payable": false,
      "stateMutability": "nonpayable",
      "type": "function"
    },
    {
      "constant": false,
      "inputs": [],
      "name": "depart",
      "outputs": [],
      "payable": false,
      "stateMutability": "nonpayable",
      "type": "function"
    },
    {
      "constant": false,
      "inputs": [],
      "name": "register",
      "outputs": [],
      "payable": false,
      "stateMutability": "nonpayable",
      "type": "function"
    },
    {
      "constant": true,
      "inputs": [],
      "name": "getRegisteredAddresses",
      "outputs": [
        {
          "name": "",
          "type": "address[]"
        }
      ],
      "payable": false,
      "stateMutability": "view",
      "type": "function"
    },
    {
      "constant": true,
      "inputs": [
        {
          "name": "_address",
          "type": "address"
        }
      ],
      "name": "getEntityData",
      "outputs": [
        {
          "name": "",
          "type": "string"
        },
        {
          "name": "",
          "type": "bool"
        },
        {
          "name": "",
          "type": "bool"
        },
        {
          "name": "",
          "type": "uint256"
        },
        {
          "name": "",
          "type": "uint256"
        },
        {
          "name": "",
          "type": "uint256"
        },
        {
          "name": "",
          "type": "uint256"
        }
      ],
      "payable": false,
      "stateMutability": "view",
      "type": "function"
    }
  ],
  "bytecode": "0x606060405234156200001057600080fd5b60405162001a6938038062001a6983398101604052808051820191906020018051906020019091908051906020019091905050336000806101000a81548173ffffffffffffffffffffffffffffffffffffffff021916908373ffffffffffffffffffffffffffffffffffffffff16021790555082600190805190602001906200009b929190620000c3565b5060006002819055506000600381905550816004819055508060058190555050505062000172565b828054600181600116156101000203166002900490600052602060002090601f016020900481019282601f106200010657805160ff191683800117855562000137565b8280016001018555821562000137579182015b828111156200013657825182559160200191906001019062000119565b5b5090506200014691906200014a565b5090565b6200016f91905b808211156200016b57600081600090555060010162000151565b5090565b90565b6118e780620001826000396000f30060606040526004361061011d576000357c0100000000000000000000000000000000000000000000000000000000900463ffffffff16806303840cba1461012257806306fdde031461018c578063152e7b0b1461021a5780631aa3a00814610243578063227ef06114610258578063291894c1146102c25780634fed7bf01461032c5780635b43bc9914610355578063617a18c4146103b257806363fbfce0146104be5780636ad43e5b146104e75780636bf2f38e146105205780638fe066fc146105495780639f71f83914610582578063bf7a9d8f14610597578063c3c5a54714610613578063d4a3ffe914610664578063d9105cfe146106c7578063d97f4864146106dc578063f1d2fd78146107c0578063f851a440146107f9575b600080fd5b341561012d57600080fd5b610143600480803590602001909190505061084e565b604051808373ffffffffffffffffffffffffffffffffffffffff1673ffffffffffffffffffffffffffffffffffffffff1681526020018281526020019250505060405180910390f35b341561019757600080fd5b61019f610892565b6040518080602001828103825283818151815260200191508051906020019080838360005b838110156101df5780820151818401526020810190506101c4565b50505050905090810190601f16801561020c5780820380516001836020036101000a031916815260200191505b509250505060405180910390f35b341561022557600080fd5b61022d610930565b6040518082815260200191505060405180910390f35b341561024e57600080fd5b610256610936565b005b341561026357600080fd5b61026b610af6565b6040518080602001828103825283818151815260200191508051906020019060200280838360005b838110156102ae578082015181840152602081019050610293565b505050509050019250505060405180910390f35b34156102cd57600080fd5b6102e36004808035906020019091905050610b8a565b604051808373ffffffffffffffffffffffffffffffffffffffff1673ffffffffffffffffffffffffffffffffffffffff1681526020018281526020019250505060405180910390f35b341561033757600080fd5b61033f610bce565b6040518082815260200191505060405180910390f35b341561036057600080fd5b6103b0600480803590602001908201803590602001908080601f01602080910402602001604051908101604052809392919081815260200183838082843782019150505050505091905050610bd4565b005b34156103bd57600080fd5b6103e9600480803573ffffffffffffffffffffffffffffffffffffffff16906020019091905050610c90565b604051808060200189151515158152602001881515151581526020018715151515815260200186815260200185815260200184815260200183815260200182810382528a8181546001816001161561010002031660029004815260200191508054600181600116156101000203166002900480156104a85780601f1061047d576101008083540402835291602001916104a8565b820191906000526020600020905b81548152906001019060200180831161048b57829003601f168201915b5050995050505050505050505060405180910390f35b34156104c957600080fd5b6104d1610cfe565b6040518082815260200191505060405180910390f35b34156104f257600080fd5b61051e600480803573ffffffffffffffffffffffffffffffffffffffff16906020019091905050610d04565b005b341561052b57600080fd5b610533610dbd565b6040518082815260200191505060405180910390f35b341561055457600080fd5b610580600480803573ffffffffffffffffffffffffffffffffffffffff16906020019091905050610dc3565b005b341561058d57600080fd5b610595610e7c565b005b34156105a257600080fd5b610611600480803573ffffffffffffffffffffffffffffffffffffffff1690602001909190803590602001908201803590602001908080601f01602080910402602001604051908101604052809392919081815260200183838082843782019150505050505091905050611104565b005b341561061e57600080fd5b61064a600480803573ffffffffffffffffffffffffffffffffffffffff169060200190919050506111ba565b604051808215151515815260200191505060405180910390f35b341561066f57600080fd5b6106856004808035906020019091905050611213565b604051808273ffffffffffffffffffffffffffffffffffffffff1673ffffffffffffffffffffffffffffffffffffffff16815260200191505060405180910390f35b34156106d257600080fd5b6106da611252565b005b34156106e757600080fd5b610713600480803573ffffffffffffffffffffffffffffffffffffffff16906020019091905050611430565b60405180806020018815151515815260200187151515158152602001868152602001858152602001848152602001838152602001828103825289818151815260200191508051906020019080838360005b8381101561077f578082015181840152602081019050610764565b50505050905090810190601f1680156107ac5780820380516001836020036101000a031916815260200191505b509850505050505050505060405180910390f35b34156107cb57600080fd5b6107f7600480803573ffffffffffffffffffffffffffffffffffffffff169060200190919050506116e4565b005b341561080457600080fd5b61080c61179d565b604051808273ffffffffffffffffffffffffffffffffffffffff1673ffffffffffffffffffffffffffffffffffffffff16815260200191505060405180910390f35b60086020528060005260406000206000915090508060000160009054906101000a900473ffffffffffffffffffffffffffffffffffffffff16908060010154905082565b60018054600181600116156101000203166002900480601f0160208091040260200160405190810160405280929190818152602001828054600181600116156101000203166002900480156109285780601f106108fd57610100808354040283529160200191610928565b820191906000526020600020905b81548152906001019060200180831161090b57829003601f168201915b505050505081565b60025481565b61093f336111ba565b15151561094b57600080fd5b6001600660003373ffffffffffffffffffffffffffffffffffffffff1673ffffffffffffffffffffffffffffffffffffffff16815260200190815260200160002060010160026101000a81548160ff0219169083151502179055506000600660003373ffffffffffffffffffffffffffffffffffffffff1673ffffffffffffffffffffffffffffffffffffffff16815260200190815260200160002060010160016101000a81548160ff0219169083151502179055506000600660003373ffffffffffffffffffffffffffffffffffffffff1673ffffffffffffffffffffffffffffffffffffffff168152602001908152602001600020600201819055506000600660003373ffffffffffffffffffffffffffffffffffffffff1673ffffffffffffffffffffffffffffffffffffffff1681526020019081526020016000206003018190555060098054806001018281610aa591906117c2565b9160005260206000209001600033909190916101000a81548173ffffffffffffffffffffffffffffffffffffffff021916908373ffffffffffffffffffffffffffffffffffffffff16021790555050565b610afe6117ee565b6009805480602002602001604051908101604052809291908181526020018280548015610b8057602002820191906000526020600020905b8160009054906101000a900473ffffffffffffffffffffffffffffffffffffffff1673ffffffffffffffffffffffffffffffffffffffff1681526020019060010190808311610b36575b5050505050905090565b60076020528060005260406000206000915090508060000160009054906101000a900473ffffffffffffffffffffffffffffffffffffffff16908060010154905082565b60055481565b60011515600660003373ffffffffffffffffffffffffffffffffffffffff1673ffffffffffffffffffffffffffffffffffffffff16815260200190815260200160002060010160019054906101000a900460ff161515141515610c3657600080fd5b80600660003373ffffffffffffffffffffffffffffffffffffffff1673ffffffffffffffffffffffffffffffffffffffff1681526020019081526020016000206000019080519060200190610c8c929190611802565b5050565b600660205280600052604060002060009150905080600001908060010160009054906101000a900460ff16908060010160019054906101000a900460ff16908060010160029054906101000a900460ff16908060020154908060030154908060040154908060050154905088565b60035481565b3373ffffffffffffffffffffffffffffffffffffffff166000809054906101000a900473ffffffffffffffffffffffffffffffffffffffff1673ffffffffffffffffffffffffffffffffffffffff16141515610d5f57600080fd5b6001600660008373ffffffffffffffffffffffffffffffffffffffff1673ffffffffffffffffffffffffffffffffffffffff16815260200190815260200160002060010160016101000a81548160ff02191690831515021790555050565b60045481565b3373ffffffffffffffffffffffffffffffffffffffff166000809054906101000a900473ffffffffffffffffffffffffffffffffffffffff1673ffffffffffffffffffffffffffffffffffffffff16141515610e1e57600080fd5b6000600660008373ffffffffffffffffffffffffffffffffffffffff1673ffffffffffffffffffffffffffffffffffffffff16815260200190815260200160002060010160016101000a81548160ff02191690831515021790555050565b60011515600660003373ffffffffffffffffffffffffffffffffffffffff1673ffffffffffffffffffffffffffffffffffffffff16815260200190815260200160002060010160019054906101000a900460ff161515141515610ede57600080fd5b600454600660003373ffffffffffffffffffffffffffffffffffffffff1673ffffffffffffffffffffffffffffffffffffffff16815260200190815260200160002060040154014210151515610f3357600080fd5b600554600660003373ffffffffffffffffffffffffffffffffffffffff1673ffffffffffffffffffffffffffffffffffffffff16815260200190815260200160002060040154014211151515610f8857600080fd5b3360086000600354815260200190815260200160002060000160006101000a81548173ffffffffffffffffffffffffffffffffffffffff021916908373ffffffffffffffffffffffffffffffffffffffff16021790555042600860006003548152602001908152602001600020600101819055506000600660003373ffffffffffffffffffffffffffffffffffffffff1673ffffffffffffffffffffffffffffffffffffffff16815260200190815260200160002060010160006101000a81548160ff021916908315150217905550600660003373ffffffffffffffffffffffffffffffffffffffff1673ffffffffffffffffffffffffffffffffffffffff1681526020019081526020016000206003016000815480929190600101919050555042600660003373ffffffffffffffffffffffffffffffffffffffff1673ffffffffffffffffffffffffffffffffffffffff16815260200190815260200160002060050181905550600360008154809291906001019190505550565b3373ffffffffffffffffffffffffffffffffffffffff166000809054906101000a900473ffffffffffffffffffffffffffffffffffffffff1673ffffffffffffffffffffffffffffffffffffffff1614151561115f57600080fd5b80600660008473ffffffffffffffffffffffffffffffffffffffff1673ffffffffffffffffffffffffffffffffffffffff16815260200190815260200160002060000190805190602001906111b5929190611802565b505050565b6000600660008373ffffffffffffffffffffffffffffffffffffffff1673ffffffffffffffffffffffffffffffffffffffff16815260200190815260200160002060010160029054906101000a900460ff169050919050565b60098181548110151561122257fe5b90600052602060002090016000915054906101000a900473ffffffffffffffffffffffffffffffffffffffff1681565b60011515600660003373ffffffffffffffffffffffffffffffffffffffff1673ffffffffffffffffffffffffffffffffffffffff16815260200190815260200160002060010160019054906101000a900460ff1615151415156112b457600080fd5b3360076000600254815260200190815260200160002060000160006101000a81548173ffffffffffffffffffffffffffffffffffffffff021916908373ffffffffffffffffffffffffffffffffffffffff16021790555042600760006002548152602001908152602001600020600101819055506001600660003373ffffffffffffffffffffffffffffffffffffffff1673ffffffffffffffffffffffffffffffffffffffff16815260200190815260200160002060010160006101000a81548160ff021916908315150217905550600660003373ffffffffffffffffffffffffffffffffffffffff1673ffffffffffffffffffffffffffffffffffffffff1681526020019081526020016000206002016000815480929190600101919050555042600660003373ffffffffffffffffffffffffffffffffffffffff1673ffffffffffffffffffffffffffffffffffffffff16815260200190815260200160002060040181905550600260008154809291906001019190505550565b611438611882565b600080600080600080600660008973ffffffffffffffffffffffffffffffffffffffff1673ffffffffffffffffffffffffffffffffffffffff168152602001908152602001600020600001600660008a73ffffffffffffffffffffffffffffffffffffffff1673ffffffffffffffffffffffffffffffffffffffff16815260200190815260200160002060010160019054906101000a900460ff16600660008b73ffffffffffffffffffffffffffffffffffffffff1673ffffffffffffffffffffffffffffffffffffffff16815260200190815260200160002060010160009054906101000a900460ff16600660008c73ffffffffffffffffffffffffffffffffffffffff1673ffffffffffffffffffffffffffffffffffffffff16815260200190815260200160002060040154600660008d73ffffffffffffffffffffffffffffffffffffffff1673ffffffffffffffffffffffffffffffffffffffff16815260200190815260200160002060050154600660008e73ffffffffffffffffffffffffffffffffffffffff1673ffffffffffffffffffffffffffffffffffffffff16815260200190815260200160002060020154600660008f73ffffffffffffffffffffffffffffffffffffffff1673ffffffffffffffffffffffffffffffffffffffff16815260200190815260200160002060030154868054600181600116156101000203166002900480601f0160208091040260200160405190810160405280929190818152602001828054600181600116156101000203166002900480156116c45780601f10611699576101008083540402835291602001916116c4565b820191906000526020600020905b8154815290600101906020018083116116a757829003601f168201915b505050505096509650965096509650965096509650919395979092949650565b3373ffffffffffffffffffffffffffffffffffffffff166000809054906101000a900473ffffffffffffffffffffffffffffffffffffffff1673ffffffffffffffffffffffffffffffffffffffff1614151561173f57600080fd5b6000600660008373ffffffffffffffffffffffffffffffffffffffff1673ffffffffffffffffffffffffffffffffffffffff16815260200190815260200160002060010160006101000a81548160ff02191690831515021790555050565b6000809054906101000a900473ffffffffffffffffffffffffffffffffffffffff1681565b8154818355818115116117e9578183600052602060002091820191016117e89190611896565b5b505050565b602060405190810160405280600081525090565b828054600181600116156101000203166002900490600052602060002090601f016020900481019282601f1061184357805160ff1916838001178555611871565b82800160010185558215611871579182015b82811115611870578251825591602001919060010190611855565b5b50905061187e9190611896565b5090565b602060405190810160405280600081525090565b6118b891905b808211156118b457600081600090555060010161189c565b5090565b905600a165627a7a7230582086b198bcc63c9cd1274be6797381f002ed1468b9e8f106172e5ca1efc622ce920029",
  "source": "pragma solidity ^0.4.16;\n\ncontract PunchTheClock {\n\n    address public admin;\n    string public name;\n    uint public arrivalsCount;\n    uint public departuresCount;\n    uint public timeMin;\n    uint public timeMax;\n\n    function PunchTheClock(string _name, uint _timeMin, uint _timeMax) public {\n        admin = msg.sender;\n        name = _name;\n        arrivalsCount = 0;\n        departuresCount = 0;\n        timeMin = _timeMin;\n        timeMax = _timeMax;\n    }\n\n    /**\n     * Structs\n     * @type entity\n     * @type timestamp\n    */\n    struct entity {\n        string name;\n        bool isActive;\n        bool isApproved;\n        bool isRegistered;\n        uint arrivals;\n        uint departures;\n        uint timeArrived;\n        uint timeDeparted;\n    }\n\n    struct timestamp {\n        address eid;\n        uint time;\n    }\n\n    /**\n     * Mapping\n     * @type entityList: Status of everyone registering with Smart Contract\n     * @type arrivalList: List of times people arrived\n     * @type departList: List of times people departed\n    */\n    mapping (address => entity) public entityList;\n    mapping (uint => timestamp) public arrivalList;\n    mapping (uint => timestamp) public departList;\n\n    address[] public registeredList;\n\n    /**\n     * Events\n     * Monitor smart contact events to push state changes\n    */\n    event EventRegister(    \n      address indexed _from,\n      string _name\n    );\n    event EventArrive(    \n      address indexed _from,\n      string _name\n    );\n    event EventDepart(    \n      address indexed _from,\n      string _name\n    );\n    \n    /**\n     * Modifiers\n    */\n    modifier isAdmin() {\n        require(admin == msg.sender);\n        _;\n    }\n\n    modifier isApproved() {\n        require(entityList[msg.sender].isApproved == true);\n        _;\n    }\n\n    modifier isComplete() {\n        require(now >= entityList[msg.sender].timeArrived + timeMin); \n        _;\n    }\n\n    modifier isReasonable() {\n        require(now <= entityList[msg.sender].timeArrived + timeMax); \n        _;\n    }\n\n    function isRegistered(address _address) public view returns(bool isIndeed) {\n        return entityList[_address].isRegistered;\n    }\n\n    /**\n     * Administrator Privileges\n     */\n    function adminApprove(address _address) public isAdmin {\n        entityList[_address].isApproved = true;\n    }\n    function adminRevoke(address _address) public isAdmin {\n        entityList[_address].isApproved = false;\n    }\n    function adminDeactivate(address _address) public isAdmin {\n        entityList[_address].isActive = false;\n    }\n    function adminNameEntity(address _address, string _name) public isAdmin {\n        entityList[_address].name = _name;\n    }\n\n    /**\n     * Entity Privileges\n     */\n    function name(string _name) public isApproved {\n        entityList[msg.sender].name = _name;\n    }\n    \n    function arrive() public isApproved {\n        arrivalList[arrivalsCount].eid = msg.sender;\n        arrivalList[arrivalsCount].time = now;\n        entityList[msg.sender].isActive = true;\n        entityList[msg.sender].arrivals++; \n        entityList[msg.sender].timeArrived = now;\n        arrivalsCount++;\n    }\n\n    function depart() public isApproved isComplete isReasonable {\n        departList[departuresCount].eid = msg.sender;\n        departList[departuresCount].time = now;\n        entityList[msg.sender].isActive = false;\n        entityList[msg.sender].departures++;\n        entityList[msg.sender].timeDeparted = now;\n        departuresCount++;\n    }\n\n    function register() public {\n        require(!isRegistered(msg.sender));\n        entityList[msg.sender].isRegistered = true;\n        entityList[msg.sender].isApproved = false;\n        entityList[msg.sender].arrivals = 0;\n        entityList[msg.sender].departures = 0;\n        registeredList.push(msg.sender);\n    }\n\n    /**\n     * Views\n     */\n    function getRegisteredAddresses() view public returns (address[]) {\n        return registeredList;\n    }\n\n    function getEntityData(address _address) view public returns (string, bool, bool, uint, uint, uint, uint) {\n        return (entityList[_address].name, entityList[_address].isApproved, entityList[_address].isActive, entityList[_address].timeArrived, entityList[_address].timeDeparted, entityList[_address].arrivals, entityList[_address].departures);\n    }\n\n}\n",
  "sourcePath": "/Users/kamescg/Documents/Projects/uPort/code/projects/meshconnect/contracts/PunchTheClock.sol",
  "compiler": {
    "name": "solc",
    "version": "0.4.19+commit.c4cbbb05.Emscripten.clang"
  },
  "schemaVersion": "2.0.0",
  "updatedAt": "2018-04-15T01:39:43.163Z"
}